{
  "contractName": "FlightInsurance",
  "abi": [
    {
      "inputs": [],
      "stateMutability": "nonpayable",
      "type": "constructor"
    },
    {
      "anonymous": false,
      "inputs": [
        {
          "indexed": false,
          "internalType": "address",
          "name": "user",
          "type": "address"
        },
        {
          "indexed": false,
          "internalType": "string",
          "name": "flightID",
          "type": "string"
        },
        {
          "indexed": false,
          "internalType": "uint256",
          "name": "blockTimestamp",
          "type": "uint256"
        },
        {
          "indexed": false,
          "internalType": "uint256",
          "name": "flightTimestamp",
          "type": "uint256"
        },
        {
          "indexed": false,
          "internalType": "uint256",
          "name": "delayThreshold",
          "type": "uint256"
        },
        {
          "indexed": false,
          "internalType": "bool",
          "name": "meetsDelayRequirement",
          "type": "bool"
        }
      ],
      "name": "DebugTimestamps",
      "type": "event"
    },
    {
      "inputs": [
        {
          "internalType": "uint256",
          "name": "",
          "type": "uint256"
        }
      ],
      "name": "allSubscribers",
      "outputs": [
        {
          "internalType": "address",
          "name": "",
          "type": "address"
        }
      ],
      "stateMutability": "view",
      "type": "function",
      "constant": true
    },
    {
      "inputs": [
        {
          "internalType": "uint256",
          "name": "",
          "type": "uint256"
        }
      ],
      "name": "allUsersWithFlights",
      "outputs": [
        {
          "internalType": "address",
          "name": "",
          "type": "address"
        }
      ],
      "stateMutability": "view",
      "type": "function",
      "constant": true
    },
    {
      "inputs": [
        {
          "internalType": "string",
          "name": "",
          "type": "string"
        }
      ],
      "name": "flightDelays",
      "outputs": [
        {
          "internalType": "bool",
          "name": "",
          "type": "bool"
        }
      ],
      "stateMutability": "view",
      "type": "function",
      "constant": true
    },
    {
      "inputs": [],
      "name": "oracle",
      "outputs": [
        {
          "internalType": "address",
          "name": "",
          "type": "address"
        }
      ],
      "stateMutability": "view",
      "type": "function",
      "constant": true
    },
    {
      "inputs": [],
      "name": "owner",
      "outputs": [
        {
          "internalType": "address",
          "name": "",
          "type": "address"
        }
      ],
      "stateMutability": "view",
      "type": "function",
      "constant": true
    },
    {
      "inputs": [
        {
          "internalType": "address",
          "name": "",
          "type": "address"
        }
      ],
      "name": "subscriptions",
      "outputs": [
        {
          "internalType": "bool",
          "name": "isActive",
          "type": "bool"
        },
        {
          "internalType": "uint256",
          "name": "startTime",
          "type": "uint256"
        }
      ],
      "stateMutability": "view",
      "type": "function",
      "constant": true
    },
    {
      "inputs": [
        {
          "internalType": "address",
          "name": "_oracle",
          "type": "address"
        }
      ],
      "name": "setOracle",
      "outputs": [],
      "stateMutability": "nonpayable",
      "type": "function"
    },
    {
      "inputs": [],
      "name": "depositFunds",
      "outputs": [],
      "stateMutability": "payable",
      "type": "function",
      "payable": true
    },
    {
      "inputs": [],
      "name": "subscribe",
      "outputs": [],
      "stateMutability": "payable",
      "type": "function",
      "payable": true
    },
    {
      "inputs": [
        {
          "internalType": "string",
          "name": "flightID",
          "type": "string"
        },
        {
          "internalType": "uint256",
          "name": "flightTimestamp",
          "type": "uint256"
        }
      ],
      "name": "registerFlight",
      "outputs": [],
      "stateMutability": "nonpayable",
      "type": "function"
    },
    {
      "inputs": [
        {
          "internalType": "string",
          "name": "flightID",
          "type": "string"
        },
        {
          "internalType": "bool",
          "name": "delayed",
          "type": "bool"
        }
      ],
      "name": "updateFlightStatus",
      "outputs": [],
      "stateMutability": "nonpayable",
      "type": "function"
    },
    {
      "inputs": [
        {
          "internalType": "address",
          "name": "user",
          "type": "address"
        }
      ],
      "name": "isSubscribed",
      "outputs": [
        {
          "internalType": "bool",
          "name": "",
          "type": "bool"
        }
      ],
      "stateMutability": "view",
      "type": "function",
      "constant": true
    },
    {
      "inputs": [
        {
          "internalType": "address",
          "name": "user",
          "type": "address"
        }
      ],
      "name": "getPolicyCount",
      "outputs": [
        {
          "internalType": "uint256",
          "name": "",
          "type": "uint256"
        }
      ],
      "stateMutability": "view",
      "type": "function",
      "constant": true
    },
    {
      "inputs": [
        {
          "internalType": "address",
          "name": "user",
          "type": "address"
        }
      ],
      "name": "getUserPolicies",
      "outputs": [
        {
          "internalType": "string[]",
          "name": "",
          "type": "string[]"
        },
        {
          "internalType": "uint256[]",
          "name": "",
          "type": "uint256[]"
        },
        {
          "internalType": "bool[]",
          "name": "",
          "type": "bool[]"
        }
      ],
      "stateMutability": "view",
      "type": "function",
      "constant": true
    }
  ],
  "bytecode": "0x608060405234801561001057600080fd5b5033600160006101000a81548173ffffffffffffffffffffffffffffffffffffffff021916908373ffffffffffffffffffffffffffffffffffffffff1602179055506123c8806100616000396000f3fe6080604052600436106100dd5760003560e01c80637dc0d1d01161007f578063b7a046f911610059578063b7a046f9146102b3578063b92ae87c146102f0578063e2c41dbc1461032d578063f046395a14610337576100dd565b80637dc0d1d0146102535780638da5cb5b1461027e5780638f449a05146102a9576100dd565b806339cfc995116100bb57806339cfc9951461019b5780635f4b9b4f146101c45780636f75d5a7146102015780637adbf9731461022a576100dd565b806309a1c9bd146100e257806319ac46141461011f5780631eb32dfd1461015e575b600080fd5b3480156100ee57600080fd5b5061010960048036038101906101049190611877565b610375565b6040516101169190611de2565b60405180910390f35b34801561012b57600080fd5b5061014660048036038101906101419190611765565b6103b4565b60405161015593929190611e65565b60405180910390f35b34801561016a57600080fd5b506101856004803603810190610180919061178e565b6107fc565b6040516101929190611eb1565b60405180910390f35b3480156101a757600080fd5b506101c260048036038101906101bd9190611823565b610832565b005b3480156101d057600080fd5b506101eb60048036038101906101e69190611765565b610b9e565b6040516101f89190611fd5565b60405180910390f35b34801561020d57600080fd5b50610228600480360381019061022391906117cf565b610bed565b005b34801561023657600080fd5b50610251600480360381019061024c9190611765565b610f96565b005b34801561025f57600080fd5b50610268611069565b6040516102759190611de2565b60405180910390f35b34801561028a57600080fd5b5061029361108d565b6040516102a09190611de2565b60405180910390f35b6102b16110b3565b005b3480156102bf57600080fd5b506102da60048036038101906102d59190611877565b61145b565b6040516102e79190611de2565b60405180910390f35b3480156102fc57600080fd5b5061031760048036038101906103129190611765565b61149a565b6040516103249190611eb1565b60405180910390f35b610335611515565b005b34801561034357600080fd5b5061035e60048036038101906103599190611765565b6115ea565b60405161036c929190611ecc565b60405180910390f35b6005818154811061038557600080fd5b906000526020600020016000915054906101000a900473ffffffffffffffffffffffffffffffffffffffff1681565b60608060606000600260008673ffffffffffffffffffffffffffffffffffffffff1673ffffffffffffffffffffffffffffffffffffffff16815260200190815260200160002090506000816002018054905067ffffffffffffffff811115610445577f4e487b7100000000000000000000000000000000000000000000000000000000600052604160045260246000fd5b60405190808252806020026020018201604052801561047857816020015b60608152602001906001900390816104635790505b5090506000826002018054905067ffffffffffffffff8111156104c4577f4e487b7100000000000000000000000000000000000000000000000000000000600052604160045260246000fd5b6040519080825280602002602001820160405280156104f25781602001602082028036833780820191505090505b5090506000836002018054905067ffffffffffffffff81111561053e577f4e487b7100000000000000000000000000000000000000000000000000000000600052604160045260246000fd5b60405190808252806020026020018201604052801561056c5781602001602082028036833780820191505090505b50905060005b84600201805490508110156107e7578460020181815481106105bd577f4e487b7100000000000000000000000000000000000000000000000000000000600052603260045260246000fd5b906000526020600020906003020160000180546105d990612234565b80601f016020809104026020016040519081016040528092919081815260200182805461060590612234565b80156106525780601f1061062757610100808354040283529160200191610652565b820191906000526020600020905b81548152906001019060200180831161063557829003601f168201915b5050505050848281518110610690577f4e487b7100000000000000000000000000000000000000000000000000000000600052603260045260246000fd5b60200260200101819052508460020181815481106106d7577f4e487b7100000000000000000000000000000000000000000000000000000000600052603260045260246000fd5b906000526020600020906003020160010154838281518110610722577f4e487b7100000000000000000000000000000000000000000000000000000000600052603260045260246000fd5b60200260200101818152505084600201818154811061076a577f4e487b7100000000000000000000000000000000000000000000000000000000600052603260045260246000fd5b906000526020600020906003020160020160009054906101000a900460ff168282815181106107c2577f4e487b7100000000000000000000000000000000000000000000000000000000600052603260045260246000fd5b60200260200101901515908115158152505080806107df90612266565b915050610572565b50828282965096509650505050509193909250565b6003818051602081018201805184825260208301602085012081835280955050505050506000915054906101000a900460ff1681565b60008054906101000a900473ffffffffffffffffffffffffffffffffffffffff1673ffffffffffffffffffffffffffffffffffffffff163373ffffffffffffffffffffffffffffffffffffffff1614156108c1576040517f08c379a00000000000000000000000000000000000000000000000000000000081526004016108b890611f35565b60405180910390fd5b6000600260003373ffffffffffffffffffffffffffffffffffffffff1673ffffffffffffffffffffffffffffffffffffffff168152602001908152602001600020905060005b81600201805490508110156109d457838051906020012082600201828154811061095a577f4e487b7100000000000000000000000000000000000000000000000000000000600052603260045260246000fd5b90600052602060002090600302016000016040516109789190611db4565b604051809103902014156109c1576040517f08c379a00000000000000000000000000000000000000000000000000000000081526004016109b890611f55565b60405180910390fd5b80806109cc90612266565b915050610907565b508060020160405180606001604052808581526020018481526020016000151581525090806001815401808255809150506001900390600052602060002090600302016000909190919091506000820151816000019080519060200190610a3c92919061161b565b506020820151816001015560408201518160020160006101000a81548160ff02191690831515021790555050506000805b600580549050811015610b2e573373ffffffffffffffffffffffffffffffffffffffff1660058281548110610acb577f4e487b7100000000000000000000000000000000000000000000000000000000600052603260045260246000fd5b9060005260206000200160009054906101000a900473ffffffffffffffffffffffffffffffffffffffff1673ffffffffffffffffffffffffffffffffffffffff161415610b1b5760019150610b2e565b8080610b2690612266565b915050610a6d565b5080610b98576005339080600181540180825580915050600190039060005260206000200160009091909190916101000a81548173ffffffffffffffffffffffffffffffffffffffff021916908373ffffffffffffffffffffffffffffffffffffffff1602179055505b50505050565b6000600260008373ffffffffffffffffffffffffffffffffffffffff1673ffffffffffffffffffffffffffffffffffffffff168152602001908152602001600020600201805490509050919050565b60008054906101000a900473ffffffffffffffffffffffffffffffffffffffff1673ffffffffffffffffffffffffffffffffffffffff163373ffffffffffffffffffffffffffffffffffffffff1614610c7b576040517f08c379a0000000000000000000000000000000000000000000000000000000008152600401610c7290611f75565b60405180910390fd5b80600383604051610c8c9190611dcb565b908152602001604051809103902060006101000a81548160ff0219169083151502179055508015610f925760005b600580549050811015610f9057600060058281548110610d03577f4e487b7100000000000000000000000000000000000000000000000000000000600052603260045260246000fd5b9060005260206000200160009054906101000a900473ffffffffffffffffffffffffffffffffffffffff1690506000600260008373ffffffffffffffffffffffffffffffffffffffff1673ffffffffffffffffffffffffffffffffffffffff168152602001908152602001600020905060008160000160009054906101000a900460ff168015610da4575062278d008260010154610da19190612154565b42105b90508160000160009054906101000a900460ff168015610dc2575080155b15610de55760008260000160006101000a81548160ff0219169083151502179055505b60005b8260020180549050811015610f79576000836002018281548110610e35577f4e487b7100000000000000000000000000000000000000000000000000000000600052603260045260246000fd5b906000526020600020906003020190506000611c208260010154610e599190612154565b42101590507f08b9272bd05644e183b7ae5d5b53e652ee8a692fa1790f5ba1b74f6debf7f495868a428560010154611c2086604051610e9d96959493929190611dfd565b60405180910390a1888051906020012082600001604051610ebe9190611db4565b6040518091039020148015610ee257508160020160009054906101000a900460ff16155b8015610eeb5750805b15610f64578315610f635760018260020160006101000a81548160ff0219169083151502179055508573ffffffffffffffffffffffffffffffffffffffff166108fc670de0b6b3a76400009081150290604051600060405180830381858888f19350505050158015610f61573d6000803e3d6000fd5b505b5b50508080610f7190612266565b915050610de8565b505050508080610f8890612266565b915050610cba565b505b5050565b600160009054906101000a900473ffffffffffffffffffffffffffffffffffffffff1673ffffffffffffffffffffffffffffffffffffffff163373ffffffffffffffffffffffffffffffffffffffff1614611026576040517f08c379a000000000000000000000000000000000000000000000000000000000815260040161101d90611ef5565b60405180910390fd5b806000806101000a81548173ffffffffffffffffffffffffffffffffffffffff021916908373ffffffffffffffffffffffffffffffffffffffff16021790555050565b60008054906101000a900473ffffffffffffffffffffffffffffffffffffffff1681565b600160009054906101000a900473ffffffffffffffffffffffffffffffffffffffff1681565b674563918244f4000034146110fd576040517f08c379a00000000000000000000000000000000000000000000000000000000081526004016110f490611f15565b60405180910390fd5b600260003373ffffffffffffffffffffffffffffffffffffffff1673ffffffffffffffffffffffffffffffffffffffff16815260200190815260200160002060000160009054906101000a900460ff161561118d576040517f08c379a000000000000000000000000000000000000000000000000000000000815260040161118490611fb5565b60405180910390fd5b6000600260003373ffffffffffffffffffffffffffffffffffffffff1673ffffffffffffffffffffffffffffffffffffffff168152602001908152602001600020905060018160000160006101000a81548160ff0219169083151502179055504281600101819055506000805b6004805490508110156112bb573373ffffffffffffffffffffffffffffffffffffffff1660048281548110611258577f4e487b7100000000000000000000000000000000000000000000000000000000600052603260045260246000fd5b9060005260206000200160009054906101000a900473ffffffffffffffffffffffffffffffffffffffff1673ffffffffffffffffffffffffffffffffffffffff1614156112a857600191506112bb565b80806112b390612266565b9150506111fa565b5080611325576004339080600181540180825580915050600190039060005260206000200160009091909190916101000a81548173ffffffffffffffffffffffffffffffffffffffff021916908373ffffffffffffffffffffffffffffffffffffffff1602179055505b6000905060005b6005805490508110156113ed573373ffffffffffffffffffffffffffffffffffffffff166005828154811061138a577f4e487b7100000000000000000000000000000000000000000000000000000000600052603260045260246000fd5b9060005260206000200160009054906101000a900473ffffffffffffffffffffffffffffffffffffffff1673ffffffffffffffffffffffffffffffffffffffff1614156113da57600191506113ed565b80806113e590612266565b91505061132c565b5080611457576005339080600181540180825580915050600190039060005260206000200160009091909190916101000a81548173ffffffffffffffffffffffffffffffffffffffff021916908373ffffffffffffffffffffffffffffffffffffffff1602179055505b5050565b6004818154811061146b57600080fd5b906000526020600020016000915054906101000a900473ffffffffffffffffffffffffffffffffffffffff1681565b600080600260008473ffffffffffffffffffffffffffffffffffffffff1673ffffffffffffffffffffffffffffffffffffffff16815260200190815260200160002090508060000160009054906101000a900460ff16801561150d575062278d00816001015461150a9190612154565b42105b915050919050565b600160009054906101000a900473ffffffffffffffffffffffffffffffffffffffff1673ffffffffffffffffffffffffffffffffffffffff163373ffffffffffffffffffffffffffffffffffffffff16146115a5576040517f08c379a000000000000000000000000000000000000000000000000000000000815260040161159c90611ef5565b60405180910390fd5b600034116115e8576040517f08c379a00000000000000000000000000000000000000000000000000000000081526004016115df90611f95565b60405180910390fd5b565b60026020528060005260406000206000915090508060000160009054906101000a900460ff16908060010154905082565b82805461162790612234565b90600052602060002090601f0160209004810192826116495760008555611690565b82601f1061166257805160ff1916838001178555611690565b82800160010185558215611690579182015b8281111561168f578251825591602001919060010190611674565b5b50905061169d91906116a1565b5090565b5b808211156116ba5760008160009055506001016116a2565b5090565b60006116d16116cc84612021565b611ff0565b9050828152602081018484840111156116e957600080fd5b6116f48482856121f2565b509392505050565b60008135905061170b8161234d565b92915050565b60008135905061172081612364565b92915050565b600082601f83011261173757600080fd5b81356117478482602086016116be565b91505092915050565b60008135905061175f8161237b565b92915050565b60006020828403121561177757600080fd5b6000611785848285016116fc565b91505092915050565b6000602082840312156117a057600080fd5b600082013567ffffffffffffffff8111156117ba57600080fd5b6117c684828501611726565b91505092915050565b600080604083850312156117e257600080fd5b600083013567ffffffffffffffff8111156117fc57600080fd5b61180885828601611726565b925050602061181985828601611711565b9150509250929050565b6000806040838503121561183657600080fd5b600083013567ffffffffffffffff81111561185057600080fd5b61185c85828601611726565b925050602061186d85828601611750565b9150509250929050565b60006020828403121561188957600080fd5b600061189784828501611750565b91505092915050565b60006118ac8383611a24565b60208301905092915050565b60006118c48383611ac1565b905092915050565b60006118d88383611d96565b60208301905092915050565b6118ed816121aa565b82525050565b60006118fe82612096565b61190881856120e9565b935061191383612051565b8060005b8381101561194457815161192b88826118a0565b9750611936836120c2565b925050600181019050611917565b5085935050505092915050565b600061195c826120a1565b61196681856120fa565b93508360208202850161197885612061565b8060005b858110156119b4578484038952815161199585826118b8565b94506119a0836120cf565b925060208a0199505060018101905061197c565b50829750879550505050505092915050565b60006119d1826120ac565b6119db818561210b565b93506119e683612071565b8060005b83811015611a175781516119fe88826118cc565b9750611a09836120dc565b9250506001810190506119ea565b5085935050505092915050565b611a2d816121bc565b82525050565b611a3c816121bc565b82525050565b60008154611a4f81612234565b611a59818661211c565b94506001821660008114611a745760018114611a8557611ab8565b60ff19831686528186019350611ab8565b611a8e85612081565b60005b83811015611ab057815481890152600182019150602081019050611a91565b838801955050505b50505092915050565b6000611acc826120b7565b611ad68185612127565b9350611ae6818560208601612201565b611aef8161233c565b840191505092915050565b6000611b05826120b7565b611b0f8185612138565b9350611b1f818560208601612201565b611b288161233c565b840191505092915050565b6000611b3e826120b7565b611b488185612149565b9350611b58818560208601612201565b80840191505092915050565b6000611b71602183612138565b91507f4f6e6c79206f776e65722063616e2063616c6c20746869732066756e6374696f60008301527f6e000000000000000000000000000000000000000000000000000000000000006020830152604082019050919050565b6000611bd7601583612138565b91507f5072656d69756d206d75737420626520352045544800000000000000000000006000830152602082019050919050565b6000611c17602183612138565b91507f4f7261636c652063616e6e6f7420706572666f726d207468697320616374696f60008301527f6e000000000000000000000000000000000000000000000000000000000000006020830152604082019050919050565b6000611c7d601983612138565b91507f466c6967687420616c72656164792072656769737465726564000000000000006000830152602082019050919050565b6000611cbd602283612138565b91507f4f6e6c79206f7261636c652063616e2063616c6c20746869732066756e63746960008301527f6f6e0000000000000000000000000000000000000000000000000000000000006020830152604082019050919050565b6000611d23601583612138565b91507f4d757374206465706f73697420736f6d652045544800000000000000000000006000830152602082019050919050565b6000611d63601283612138565b91507f416c7265616479207375627363726962656400000000000000000000000000006000830152602082019050919050565b611d9f816121e8565b82525050565b611dae816121e8565b82525050565b6000611dc08284611a42565b915081905092915050565b6000611dd78284611b33565b915081905092915050565b6000602082019050611df760008301846118e4565b92915050565b600060c082019050611e1260008301896118e4565b8181036020830152611e248188611afa565b9050611e336040830187611da5565b611e406060830186611da5565b611e4d6080830185611da5565b611e5a60a0830184611a33565b979650505050505050565b60006060820190508181036000830152611e7f8186611951565b90508181036020830152611e9381856119c6565b90508181036040830152611ea781846118f3565b9050949350505050565b6000602082019050611ec66000830184611a33565b92915050565b6000604082019050611ee16000830185611a33565b611eee6020830184611da5565b9392505050565b60006020820190508181036000830152611f0e81611b64565b9050919050565b60006020820190508181036000830152611f2e81611bca565b9050919050565b60006020820190508181036000830152611f4e81611c0a565b9050919050565b60006020820190508181036000830152611f6e81611c70565b9050919050565b60006020820190508181036000830152611f8e81611cb0565b9050919050565b60006020820190508181036000830152611fae81611d16565b9050919050565b60006020820190508181036000830152611fce81611d56565b9050919050565b6000602082019050611fea6000830184611da5565b92915050565b6000604051905081810181811067ffffffffffffffff821117156120175761201661230d565b5b8060405250919050565b600067ffffffffffffffff82111561203c5761203b61230d565b5b601f19601f8301169050602081019050919050565b6000819050602082019050919050565b6000819050602082019050919050565b6000819050602082019050919050565b60008190508160005260206000209050919050565b600081519050919050565b600081519050919050565b600081519050919050565b600081519050919050565b6000602082019050919050565b6000602082019050919050565b6000602082019050919050565b600082825260208201905092915050565b600082825260208201905092915050565b600082825260208201905092915050565b600081905092915050565b600082825260208201905092915050565b600082825260208201905092915050565b600081905092915050565b600061215f826121e8565b915061216a836121e8565b9250827fffffffffffffffffffffffffffffffffffffffffffffffffffffffffffffffff0382111561219f5761219e6122af565b5b828201905092915050565b60006121b5826121c8565b9050919050565b60008115159050919050565b600073ffffffffffffffffffffffffffffffffffffffff82169050919050565b6000819050919050565b82818337600083830152505050565b60005b8381101561221f578082015181840152602081019050612204565b8381111561222e576000848401525b50505050565b6000600282049050600182168061224c57607f821691505b602082108114156122605761225f6122de565b5b50919050565b6000612271826121e8565b91507fffffffffffffffffffffffffffffffffffffffffffffffffffffffffffffffff8214156122a4576122a36122af565b5b600182019050919050565b7f4e487b7100000000000000000000000000000000000000000000000000000000600052601160045260246000fd5b7f4e487b7100000000000000000000000000000000000000000000000000000000600052602260045260246000fd5b7f4e487b7100000000000000000000000000000000000000000000000000000000600052604160045260246000fd5b6000601f19601f8301169050919050565b612356816121aa565b811461236157600080fd5b50565b61236d816121bc565b811461237857600080fd5b50565b612384816121e8565b811461238f57600080fd5b5056fea26469706673582212206480256d3c99863e1c27c238be47c12e6ba404ae8b4f0fed3c124e0781395eab64736f6c63430008000033",
  "immutableReferences": {},
  "source": "// SPDX-License-Identifier: MIT\npragma solidity ^0.8.0;\n\ncontract FlightInsurance {\n    address public oracle;\n    address public owner;\n\n    uint256 constant PREMIUM = 5 ether;\n    uint256 constant PAYOUT = 1 ether;\n    uint256 constant DELAY_THRESHOLD = 2 hours;\n    uint256 constant SUBSCRIPTION_DURATION = 30 days;\n\n    struct Policy {\n        string flightID;\n        uint256 flightTimestamp;\n        bool hasPaidOut;\n    }\n\n    struct Subscription {\n        bool isActive;\n        uint256 startTime;\n        Policy[] policies;\n    }\n\n    mapping(address => Subscription) public subscriptions;\n    mapping(string => bool) public flightDelays;\n    address[] public allSubscribers;\n    address[] public allUsersWithFlights;\n\n    // Debug event\n    event DebugTimestamps(\n        address user,\n        string flightID,\n        uint256 blockTimestamp,\n        uint256 flightTimestamp,\n        uint256 delayThreshold,\n        bool meetsDelayRequirement\n    );\n\n    modifier onlyOwner() {\n        require(msg.sender == owner, \"Only owner can call this function\");\n        _;\n    }\n\n    modifier onlyOracle() {\n        require(msg.sender == oracle, \"Only oracle can call this function\");\n        _;\n    }\n\n    modifier notOracle() {\n        require(msg.sender != oracle, \"Oracle cannot perform this action\");\n        _;\n    }\n\n    constructor() {\n        owner = msg.sender;\n    }\n\n    function setOracle(address _oracle) external onlyOwner {\n        oracle = _oracle;\n    }\n\n    function depositFunds() external payable onlyOwner {\n        require(msg.value > 0, \"Must deposit some ETH\");\n    }\n\n    function subscribe() external payable {\n        require(msg.value == PREMIUM, \"Premium must be 5 ETH\");\n        require(!subscriptions[msg.sender].isActive, \"Already subscribed\");\n\n        Subscription storage sub = subscriptions[msg.sender];\n        sub.isActive = true;\n        sub.startTime = block.timestamp;\n\n        bool userExists = false;\n        for (uint i = 0; i < allSubscribers.length; i++) {\n            if (allSubscribers[i] == msg.sender) {\n                userExists = true;\n                break;\n            }\n        }\n        if (!userExists) {\n            allSubscribers.push(msg.sender);\n        }\n\n        userExists = false;\n        for (uint i = 0; i < allUsersWithFlights.length; i++) {\n            if (allUsersWithFlights[i] == msg.sender) {\n                userExists = true;\n                break;\n            }\n        }\n        if (!userExists) {\n            allUsersWithFlights.push(msg.sender);\n        }\n    }\n\n    function registerFlight(string memory flightID, uint256 flightTimestamp) external notOracle {\n        Subscription storage sub = subscriptions[msg.sender];\n\n        for (uint i = 0; i < sub.policies.length; i++) {\n            require(keccak256(bytes(sub.policies[i].flightID)) != keccak256(bytes(flightID)), \"Flight already registered\");\n        }\n\n        sub.policies.push(Policy({\n            flightID: flightID,\n            flightTimestamp: flightTimestamp,\n            hasPaidOut: false\n        }));\n\n        bool userExists = false;\n        for (uint i = 0; i < allUsersWithFlights.length; i++) {\n            if (allUsersWithFlights[i] == msg.sender) {\n                userExists = true;\n                break;\n            }\n        }\n        if (!userExists) {\n            allUsersWithFlights.push(msg.sender);\n        }\n    }\n\n    function updateFlightStatus(string memory flightID, bool delayed) external onlyOracle {\n        flightDelays[flightID] = delayed;\n        if (delayed) {\n            for (uint i = 0; i < allUsersWithFlights.length; i++) {\n                address user = allUsersWithFlights[i];\n                Subscription storage sub = subscriptions[user];\n                \n                bool isActive = sub.isActive && (block.timestamp < sub.startTime + SUBSCRIPTION_DURATION);\n                if (sub.isActive && !isActive) {\n                    sub.isActive = false;\n                }\n\n                for (uint j = 0; j < sub.policies.length; j++) {\n                    Policy storage policy = sub.policies[j];\n                    bool meetsDelay = block.timestamp >= policy.flightTimestamp + DELAY_THRESHOLD;\n                    emit DebugTimestamps(\n                        user,\n                        flightID,\n                        block.timestamp,\n                        policy.flightTimestamp,\n                        DELAY_THRESHOLD,\n                        meetsDelay\n                    );\n                    if (\n                        keccak256(bytes(policy.flightID)) == keccak256(bytes(flightID)) &&\n                        !policy.hasPaidOut &&\n                        meetsDelay\n                    ) {\n                        if (isActive) {\n                            policy.hasPaidOut = true;\n                            payable(user).transfer(PAYOUT);\n                        }\n                    }\n                }\n            }\n        }\n    }\n\n    function isSubscribed(address user) external view returns (bool) {\n        Subscription storage sub = subscriptions[user];\n        return sub.isActive && block.timestamp < sub.startTime + SUBSCRIPTION_DURATION;\n    }\n\n    function getPolicyCount(address user) external view returns (uint256) {\n        return subscriptions[user].policies.length;\n    }\n\n    function getUserPolicies(address user) external view returns (string[] memory, uint256[] memory, bool[] memory) {\n        Subscription storage sub = subscriptions[user];\n        string[] memory flightIDs = new string[](sub.policies.length);\n        uint256[] memory timestamps = new uint256[](sub.policies.length);\n        bool[] memory paidOuts = new bool[](sub.policies.length);\n\n        for (uint i = 0; i < sub.policies.length; i++) {\n            flightIDs[i] = sub.policies[i].flightID;\n            timestamps[i] = sub.policies[i].flightTimestamp;\n            paidOuts[i] = sub.policies[i].hasPaidOut;\n        }\n        return (flightIDs, timestamps, paidOuts);\n    }\n}",
  "sourcePath": "C:\\Users\\chaim\\Desktop\\projects\\FlightInsurance\\contracts\\FlightInsurance.sol",
  "compiler": {
    "name": "solc",
    "version": "0.8.0+commit.c7dfd78e.Emscripten.clang"
  },
  "schemaVersion": "3.4.16",
  "updatedAt": "2025-05-23T22:24:02.185Z",
  "networkType": "ethereum",
  "devdoc": {
    "kind": "dev",
    "methods": {},
    "version": 1
  },
  "userdoc": {
    "kind": "user",
    "methods": {},
    "version": 1
  }
}