{
  "contractName": "FlightInsurance",
  "abi": [
    {
      "inputs": [],
      "stateMutability": "nonpayable",
      "type": "constructor"
    },
    {
      "inputs": [],
      "name": "DELAY_THRESHOLD",
      "outputs": [
        {
          "internalType": "uint256",
          "name": "",
          "type": "uint256"
        }
      ],
      "stateMutability": "view",
      "type": "function"
    },
    {
      "inputs": [],
      "name": "PAYOUT",
      "outputs": [
        {
          "internalType": "uint256",
          "name": "",
          "type": "uint256"
        }
      ],
      "stateMutability": "view",
      "type": "function"
    },
    {
      "inputs": [],
      "name": "PREMIUM",
      "outputs": [
        {
          "internalType": "uint256",
          "name": "",
          "type": "uint256"
        }
      ],
      "stateMutability": "view",
      "type": "function"
    },
    {
      "inputs": [],
      "name": "SUBSCRIPTION_DURATION",
      "outputs": [
        {
          "internalType": "uint256",
          "name": "",
          "type": "uint256"
        }
      ],
      "stateMutability": "view",
      "type": "function"
    },
    {
      "inputs": [
        {
          "internalType": "uint256",
          "name": "",
          "type": "uint256"
        }
      ],
      "name": "allSubscribers",
      "outputs": [
        {
          "internalType": "address",
          "name": "",
          "type": "address"
        }
      ],
      "stateMutability": "view",
      "type": "function"
    },
    {
      "inputs": [
        {
          "internalType": "string",
          "name": "",
          "type": "string"
        }
      ],
      "name": "flightDelays",
      "outputs": [
        {
          "internalType": "bool",
          "name": "",
          "type": "bool"
        }
      ],
      "stateMutability": "view",
      "type": "function"
    },
    {
      "inputs": [],
      "name": "insurer",
      "outputs": [
        {
          "internalType": "address",
          "name": "",
          "type": "address"
        }
      ],
      "stateMutability": "view",
      "type": "function"
    },
    {
      "inputs": [],
      "name": "oracle",
      "outputs": [
        {
          "internalType": "address",
          "name": "",
          "type": "address"
        }
      ],
      "stateMutability": "view",
      "type": "function"
    },
    {
      "inputs": [
        {
          "internalType": "address",
          "name": "",
          "type": "address"
        }
      ],
      "name": "subscriptions",
      "outputs": [
        {
          "internalType": "bool",
          "name": "isActive",
          "type": "bool"
        },
        {
          "internalType": "uint256",
          "name": "startTime",
          "type": "uint256"
        }
      ],
      "stateMutability": "view",
      "type": "function"
    },
    {
      "inputs": [
        {
          "internalType": "address",
          "name": "_oracle",
          "type": "address"
        }
      ],
      "name": "setOracle",
      "outputs": [],
      "stateMutability": "nonpayable",
      "type": "function"
    },
    {
      "inputs": [],
      "name": "depositFunds",
      "outputs": [],
      "stateMutability": "payable",
      "type": "function"
    },
    {
      "inputs": [],
      "name": "subscribe",
      "outputs": [],
      "stateMutability": "payable",
      "type": "function"
    },
    {
      "inputs": [
        {
          "internalType": "string",
          "name": "flightID",
          "type": "string"
        },
        {
          "internalType": "uint256",
          "name": "flightTimestamp",
          "type": "uint256"
        }
      ],
      "name": "registerFlight",
      "outputs": [],
      "stateMutability": "nonpayable",
      "type": "function"
    },
    {
      "inputs": [
        {
          "internalType": "string",
          "name": "flightID",
          "type": "string"
        },
        {
          "internalType": "bool",
          "name": "delayed",
          "type": "bool"
        }
      ],
      "name": "updateFlightStatus",
      "outputs": [],
      "stateMutability": "nonpayable",
      "type": "function"
    },
    {
      "inputs": [],
      "name": "getContractBalance",
      "outputs": [
        {
          "internalType": "uint256",
          "name": "",
          "type": "uint256"
        }
      ],
      "stateMutability": "view",
      "type": "function"
    },
    {
      "inputs": [
        {
          "internalType": "address",
          "name": "user",
          "type": "address"
        }
      ],
      "name": "isSubscribed",
      "outputs": [
        {
          "internalType": "bool",
          "name": "",
          "type": "bool"
        }
      ],
      "stateMutability": "view",
      "type": "function"
    }
  ],
  "bytecode": "0x608060405234801561001057600080fd5b50336000806101000a81548173ffffffffffffffffffffffffffffffffffffffff021916908373ffffffffffffffffffffffffffffffffffffffff16021790555033600160006101000a81548173ffffffffffffffffffffffffffffffffffffffff021916908373ffffffffffffffffffffffffffffffffffffffff160217905550611891806100a16000396000f3fe6080604052600436106100f35760003560e01c8063aed0acee1161008a578063e2c41dbc11610059578063e2c41dbc1461030b578063ea3696ca14610315578063f046395a14610340578063f6847c821461037e576100f3565b8063aed0acee1461023b578063b7a046f914610266578063b92ae87c146102a3578063dbc837c5146102e0576100f3565b80636f9fb98a116100c65780636f9fb98a146101b25780637adbf973146101dd5780637dc0d1d0146102065780638f449a0514610231576100f3565b80631eb32dfd146100f857806332da3d101461013557806339cfc995146101605780636f75d5a714610189575b600080fd5b34801561010457600080fd5b5061011f600480360381019061011a9190610fa3565b6103a9565b60405161012c9190611427565b60405180910390f35b34801561014157600080fd5b5061014a6103df565b604051610157919061156b565b60405180910390f35b34801561016c57600080fd5b5061018760048036038101906101829190611038565b6103eb565b005b34801561019557600080fd5b506101b060048036038101906101ab9190610fe4565b61063d565b005b3480156101be57600080fd5b506101c761095f565b6040516101d4919061156b565b60405180910390f35b3480156101e957600080fd5b5061020460048036038101906101ff9190610f7a565b610967565b005b34801561021257600080fd5b5061021b610aa9565b604051610228919061140c565b60405180910390f35b610239610acf565b005b34801561024757600080fd5b50610250610c78565b60405161025d919061156b565b60405180910390f35b34801561027257600080fd5b5061028d6004803603810190610288919061108c565b610c7e565b60405161029a919061140c565b60405180910390f35b3480156102af57600080fd5b506102ca60048036038101906102c59190610f7a565b610cbd565b6040516102d79190611427565b60405180910390f35b3480156102ec57600080fd5b506102f5610d38565b604051610302919061140c565b60405180910390f35b610313610d5c565b005b34801561032157600080fd5b5061032a610dec565b604051610337919061156b565b60405180910390f35b34801561034c57600080fd5b5061036760048036038101906103629190610f7a565b610df8565b604051610375929190611442565b60405180910390f35b34801561038a57600080fd5b50610393610e29565b6040516103a0919061156b565b60405180910390f35b6003818051602081018201805184825260208301602085012081835280955050505050506000915054906101000a900460ff1681565b670de0b6b3a764000081565b6000600260003373ffffffffffffffffffffffffffffffffffffffff1673ffffffffffffffffffffffffffffffffffffffff16815260200190815260200160002090508060000160009054906101000a900460ff1661047f576040517f08c379a00000000000000000000000000000000000000000000000000000000081526004016104769061146b565b60405180910390fd5b62278d008160010154610492919061162e565b42106104d3576040517f08c379a00000000000000000000000000000000000000000000000000000000081526004016104ca9061152b565b60405180910390fd5b60005b81600201805490508110156105a3578380519060200120826002018281548110610529577f4e487b7100000000000000000000000000000000000000000000000000000000600052603260045260246000fd5b906000526020600020906003020160000160405161054791906113de565b60405180910390201415610590576040517f08c379a0000000000000000000000000000000000000000000000000000000008152600401610587906114cb565b60405180910390fd5b808061059b90611740565b9150506104d6565b50806002016040518060600160405280858152602001848152602001600015158152509080600181540180825580915050600190039060005260206000209060030201600090919091909150600082015181600001908051906020019061060b929190610e30565b506020820151816001015560408201518160020160006101000a81548160ff0219169083151502179055505050505050565b600160009054906101000a900473ffffffffffffffffffffffffffffffffffffffff1673ffffffffffffffffffffffffffffffffffffffff163373ffffffffffffffffffffffffffffffffffffffff16146106cd576040517f08c379a00000000000000000000000000000000000000000000000000000000081526004016106c4906114eb565b60405180910390fd5b806003836040516106de91906113f5565b908152602001604051809103902060006101000a81548160ff021916908315150217905550801561095b5760005b60048054905081101561095957600060048281548110610755577f4e487b7100000000000000000000000000000000000000000000000000000000600052603260045260246000fd5b9060005260206000200160009054906101000a900473ffffffffffffffffffffffffffffffffffffffff1690506000600260008373ffffffffffffffffffffffffffffffffffffffff1673ffffffffffffffffffffffffffffffffffffffff168152602001908152602001600020905062278d0081600101546107d8919061162e565b42106108025760008160000160006101000a81548160ff0219169083151502179055505050610946565b60005b8160020180549050811015610942576000826002018281548110610852577f4e487b7100000000000000000000000000000000000000000000000000000000600052603260045260246000fd5b9060005260206000209060030201905086805190602001208160000160405161087b91906113de565b604051809103902014801561089f57508060020160009054906101000a900460ff16155b80156108bc5750611c2081600101546108b8919061162e565b4210155b1561092e5760018160020160006101000a81548160ff0219169083151502179055508373ffffffffffffffffffffffffffffffffffffffff166108fc670de0b6b3a76400009081150290604051600060405180830381858888f1935050505015801561092c573d6000803e3d6000fd5b505b50808061093a90611740565b915050610805565b5050505b808061095190611740565b91505061070c565b505b5050565b600047905090565b60008054906101000a900473ffffffffffffffffffffffffffffffffffffffff1673ffffffffffffffffffffffffffffffffffffffff163373ffffffffffffffffffffffffffffffffffffffff16146109f5576040517f08c379a00000000000000000000000000000000000000000000000000000000081526004016109ec9061148b565b60405180910390fd5b600073ffffffffffffffffffffffffffffffffffffffff168173ffffffffffffffffffffffffffffffffffffffff161415610a65576040517f08c379a0000000000000000000000000000000000000000000000000000000008152600401610a5c9061150b565b60405180910390fd5b80600160006101000a81548173ffffffffffffffffffffffffffffffffffffffff021916908373ffffffffffffffffffffffffffffffffffffffff16021790555050565b600160009054906101000a900473ffffffffffffffffffffffffffffffffffffffff1681565b67016345785d8a00003414610b19576040517f08c379a0000000000000000000000000000000000000000000000000000000008152600401610b10906114ab565b60405180910390fd5b600260003373ffffffffffffffffffffffffffffffffffffffff1673ffffffffffffffffffffffffffffffffffffffff16815260200190815260200160002060000160009054906101000a900460ff1615610ba9576040517f08c379a0000000000000000000000000000000000000000000000000000000008152600401610ba09061154b565b60405180910390fd5b6000600260003373ffffffffffffffffffffffffffffffffffffffff1673ffffffffffffffffffffffffffffffffffffffff168152602001908152602001600020905060018160000160006101000a81548160ff0219169083151502179055504281600101819055506004339080600181540180825580915050600190039060005260206000200160009091909190916101000a81548173ffffffffffffffffffffffffffffffffffffffff021916908373ffffffffffffffffffffffffffffffffffffffff16021790555050565b611c2081565b60048181548110610c8e57600080fd5b906000526020600020016000915054906101000a900473ffffffffffffffffffffffffffffffffffffffff1681565b600080600260008473ffffffffffffffffffffffffffffffffffffffff1673ffffffffffffffffffffffffffffffffffffffff16815260200190815260200160002090508060000160009054906101000a900460ff168015610d30575062278d008160010154610d2d919061162e565b42105b915050919050565b60008054906101000a900473ffffffffffffffffffffffffffffffffffffffff1681565b60008054906101000a900473ffffffffffffffffffffffffffffffffffffffff1673ffffffffffffffffffffffffffffffffffffffff163373ffffffffffffffffffffffffffffffffffffffff1614610dea576040517f08c379a0000000000000000000000000000000000000000000000000000000008152600401610de19061148b565b60405180910390fd5b565b67016345785d8a000081565b60026020528060005260406000206000915090508060000160009054906101000a900460ff16908060010154905082565b62278d0081565b828054610e3c9061170e565b90600052602060002090601f016020900481019282610e5e5760008555610ea5565b82601f10610e7757805160ff1916838001178555610ea5565b82800160010185558215610ea5579182015b82811115610ea4578251825591602001919060010190610e89565b5b509050610eb29190610eb6565b5090565b5b80821115610ecf576000816000905550600101610eb7565b5090565b6000610ee6610ee1846115b7565b611586565b905082815260208101848484011115610efe57600080fd5b610f098482856116cc565b509392505050565b600081359050610f2081611816565b92915050565b600081359050610f358161182d565b92915050565b600082601f830112610f4c57600080fd5b8135610f5c848260208601610ed3565b91505092915050565b600081359050610f7481611844565b92915050565b600060208284031215610f8c57600080fd5b6000610f9a84828501610f11565b91505092915050565b600060208284031215610fb557600080fd5b600082013567ffffffffffffffff811115610fcf57600080fd5b610fdb84828501610f3b565b91505092915050565b60008060408385031215610ff757600080fd5b600083013567ffffffffffffffff81111561101157600080fd5b61101d85828601610f3b565b925050602061102e85828601610f26565b9150509250929050565b6000806040838503121561104b57600080fd5b600083013567ffffffffffffffff81111561106557600080fd5b61107185828601610f3b565b925050602061108285828601610f65565b9150509250929050565b60006020828403121561109e57600080fd5b60006110ac84828501610f65565b91505092915050565b6110be81611684565b82525050565b6110cd81611696565b82525050565b600081546110e08161170e565b6110ea8186611607565b94506001821660008114611105576001811461111657611149565b60ff19831686528186019350611149565b61111f856115e7565b60005b8381101561114157815481890152600182019150602081019050611122565b838801955050505b50505092915050565b600061115d826115fc565b6111678185611623565b93506111778185602086016116db565b80840191505092915050565b6000611190601683611612565b91507f4e6f2061637469766520737562736372697074696f6e000000000000000000006000830152602082019050919050565b60006111d0602383611612565b91507f4f6e6c7920696e73757265722063616e2063616c6c20746869732066756e637460008301527f696f6e00000000000000000000000000000000000000000000000000000000006020830152604082019050919050565b6000611236601783611612565b91507f5072656d69756d206d75737420626520302e31204554480000000000000000006000830152602082019050919050565b6000611276601983611612565b91507f466c6967687420616c72656164792072656769737465726564000000000000006000830152602082019050919050565b60006112b6602283611612565b91507f4f6e6c79206f7261636c652063616e2063616c6c20746869732066756e63746960008301527f6f6e0000000000000000000000000000000000000000000000000000000000006020830152604082019050919050565b600061131c601683611612565b91507f496e76616c6964206f7261636c652061646472657373000000000000000000006000830152602082019050919050565b600061135c601483611612565b91507f537562736372697074696f6e20657870697265640000000000000000000000006000830152602082019050919050565b600061139c601283611612565b91507f416c7265616479207375627363726962656400000000000000000000000000006000830152602082019050919050565b6113d8816116c2565b82525050565b60006113ea82846110d3565b915081905092915050565b60006114018284611152565b915081905092915050565b600060208201905061142160008301846110b5565b92915050565b600060208201905061143c60008301846110c4565b92915050565b600060408201905061145760008301856110c4565b61146460208301846113cf565b9392505050565b6000602082019050818103600083015261148481611183565b9050919050565b600060208201905081810360008301526114a4816111c3565b9050919050565b600060208201905081810360008301526114c481611229565b9050919050565b600060208201905081810360008301526114e481611269565b9050919050565b60006020820190508181036000830152611504816112a9565b9050919050565b600060208201905081810360008301526115248161130f565b9050919050565b600060208201905081810360008301526115448161134f565b9050919050565b600060208201905081810360008301526115648161138f565b9050919050565b600060208201905061158060008301846113cf565b92915050565b6000604051905081810181811067ffffffffffffffff821117156115ad576115ac6117e7565b5b8060405250919050565b600067ffffffffffffffff8211156115d2576115d16117e7565b5b601f19601f8301169050602081019050919050565b60008190508160005260206000209050919050565b600081519050919050565b600081905092915050565b600082825260208201905092915050565b600081905092915050565b6000611639826116c2565b9150611644836116c2565b9250827fffffffffffffffffffffffffffffffffffffffffffffffffffffffffffffffff0382111561167957611678611789565b5b828201905092915050565b600061168f826116a2565b9050919050565b60008115159050919050565b600073ffffffffffffffffffffffffffffffffffffffff82169050919050565b6000819050919050565b82818337600083830152505050565b60005b838110156116f95780820151818401526020810190506116de565b83811115611708576000848401525b50505050565b6000600282049050600182168061172657607f821691505b6020821081141561173a576117396117b8565b5b50919050565b600061174b826116c2565b91507fffffffffffffffffffffffffffffffffffffffffffffffffffffffffffffffff82141561177e5761177d611789565b5b600182019050919050565b7f4e487b7100000000000000000000000000000000000000000000000000000000600052601160045260246000fd5b7f4e487b7100000000000000000000000000000000000000000000000000000000600052602260045260246000fd5b7f4e487b7100000000000000000000000000000000000000000000000000000000600052604160045260246000fd5b61181f81611684565b811461182a57600080fd5b50565b61183681611696565b811461184157600080fd5b50565b61184d816116c2565b811461185857600080fd5b5056fea264697066735822122025ce89748aec148e2f62f4a36543a9b9f20e91a7f613eebe758545d8110a3c7664736f6c63430008000033",
  "immutableReferences": {},
  "source": "// SPDX-License-Identifier: MIT\npragma solidity ^0.8.0;\n\ncontract FlightInsurance {\n    address public insurer;\n    address public oracle; // Address of the oracle\n    uint256 public constant PREMIUM = 0.1 ether; // Monthly subscription premium\n    uint256 public constant PAYOUT = 1 ether; // Payout for delayed flights\n    uint256 public constant DELAY_THRESHOLD = 2 hours; // Delay threshold for payout\n    uint256 public constant SUBSCRIPTION_DURATION = 30 days; // Subscription lasts 30 days\n\n    struct Policy {\n        string flightID;\n        uint256 flightTimestamp;\n        bool hasPaidOut;\n    }\n\n    struct Subscription {\n        bool isActive;\n        uint256 startTime;\n        Policy[] policies; // Array of policies for this subscriber\n    }\n\n    mapping(address => Subscription) public subscriptions;\n    mapping(string => bool) public flightDelays; // Tracks flight delay status\n    address[] public allSubscribers; // Tracks all subscriber addresses\n\n    // Modifier to restrict actions to the insurer\n    modifier onlyInsurer() {\n        require(msg.sender == insurer, \"Only insurer can call this function\");\n        _;\n    }\n\n    // Modifier to restrict actions to the oracle\n    modifier onlyOracle() {\n        require(msg.sender == oracle, \"Only oracle can call this function\");\n        _;\n    }\n\n    constructor() {\n        insurer = msg.sender;\n        oracle = msg.sender; // For testing, oracle is deployer; can be changed later\n    }\n\n    // Allow the insurer to set a new oracle address\n    function setOracle(address _oracle) external onlyInsurer {\n        require(_oracle != address(0), \"Invalid oracle address\");\n        oracle = _oracle;\n    }\n\n    // Allow the insurer to deposit funds to cover payouts\n    function depositFunds() external payable onlyInsurer {}\n\n    // Subscribe by paying the monthly premium\n    function subscribe() external payable {\n        require(msg.value == PREMIUM, \"Premium must be 0.1 ETH\");\n        require(!subscriptions[msg.sender].isActive, \"Already subscribed\");\n\n        Subscription storage sub = subscriptions[msg.sender];\n        sub.isActive = true;\n        sub.startTime = block.timestamp;\n        allSubscribers.push(msg.sender); // Add to subscribers list\n    }\n\n    // Register a flight under an active subscription\n    function registerFlight(string memory flightID, uint256 flightTimestamp) external {\n        Subscription storage sub = subscriptions[msg.sender];\n        require(sub.isActive, \"No active subscription\");\n        require(block.timestamp < sub.startTime + SUBSCRIPTION_DURATION, \"Subscription expired\");\n\n        // Check if flightID is already registered for this user\n        for (uint i = 0; i < sub.policies.length; i++) {\n            require(keccak256(bytes(sub.policies[i].flightID)) != keccak256(bytes(flightID)), \"Flight already registered\");\n        }\n\n        sub.policies.push(Policy({\n            flightID: flightID,\n            flightTimestamp: flightTimestamp,\n            hasPaidOut: false\n        }));\n    }\n\n    // Oracle updates flight status and triggers payout if delayed\n    function updateFlightStatus(string memory flightID, bool delayed) external onlyOracle {\n        flightDelays[flightID] = delayed;\n\n        if (delayed) {\n            // Iterate through all subscribers\n            for (uint i = 0; i < allSubscribers.length; i++) {\n                address subscriber = allSubscribers[i];\n                Subscription storage sub = subscriptions[subscriber];\n\n                // Skip if subscription is expired\n                if (block.timestamp >= sub.startTime + SUBSCRIPTION_DURATION) {\n                    sub.isActive = false;\n                    continue;\n                }\n\n                // Check each policy for this subscriber\n                for (uint j = 0; j < sub.policies.length; j++) {\n                    Policy storage policy = sub.policies[j];\n                    if (\n                        keccak256(bytes(policy.flightID)) == keccak256(bytes(flightID)) &&\n                        !policy.hasPaidOut &&\n                        block.timestamp >= policy.flightTimestamp + DELAY_THRESHOLD\n                    ) {\n                        policy.hasPaidOut = true;\n                        payable(subscriber).transfer(PAYOUT);\n                    }\n                }\n            }\n        }\n    }\n\n    // Check contract balance\n    function getContractBalance() external view returns (uint256) {\n        return address(this).balance;\n    }\n\n    // Check if a subscription is active\n    function isSubscribed(address user) external view returns (bool) {\n        Subscription storage sub = subscriptions[user];\n        return sub.isActive && block.timestamp < sub.startTime + SUBSCRIPTION_DURATION;\n    }\n}",
  "sourcePath": "C:\\Users\\chaim\\Downloads\\FlightInsurance\\contracts\\FlightInsurance.sol",
  "compiler": {
    "name": "solc",
    "version": "0.8.0+commit.c7dfd78e.Emscripten.clang"
  },
  "schemaVersion": "3.4.16",
  "updatedAt": "2025-04-28T09:20:33.145Z",
  "devdoc": {
    "kind": "dev",
    "methods": {},
    "version": 1
  },
  "userdoc": {
    "kind": "user",
    "methods": {},
    "version": 1
  }
}